:020000040800F2
:10000000D0070020F92E0008D52E0008D72E0008B2
:10001000D92E0008DB2E0008DD2E000800000000AD
:10002000000000000000000000000000DF2E0008BB
:10003000E12E000800000000E32E0008E52E000875
:100040002D2F0008312F0008352F0008392F000808
:100050003D2F0008412F0008452F0008492F0008B8
:100060004D2F0008512F0008552F0008592F000868
:100070005D2F0008612F0008652F0008692F000818
:100080006D2F0008712F0008752F0008792F0008C8
:100090007D2F0008812F0008852F0008892F000878
:1000A000000000008D2F0008912F0008952F0008F8
:1000B000992F00089D2F0008A12F0008A52F0008E8
:1000C000A92F0008AD2F0008B12F0008B52F000898
:1000D000B92F0008BD2F0008C12F0008C52F000848
:1000E000C92F0008CD2F0008D12F0008D52F0008F8
:1000F000D92F000800000000DD2F0008E12F0008C4
:100100000000000000000000E52F0008E92F0008B3
:10011000ED2F0008F12F0008F52F00080000000067
:10012000F92F00082DE9FC47040040D0DFF8DC651A
:10013000B068B56800F00C082078C10705F4803578
:100140000ED5B8F1080F05D0B8F10C0F08BFB5F502
:10015000803F47D13068810302D56068002826D0EF
:100160002078DFF8B475810714D5B8F1040F04D0F6
:10017000B8F10C0F08BF002D6BD13068810702D594
:10018000E06801281ED17068216920F4F85040EA27
:10019000012070602078C10640F1B280B8F1000FF4
:1001A00040F097803068810503D5A069002800F0F1
:1001B0008481206A716801F46041814266D200F056
:1001C0006AFA002840F079817168206A21F4604160
:1001D000014371607168E06921F07F4141EA00618B
:1001E00071605EE06068012804D1306840F48030BE
:1001F000306013E008B9306809E00528306806D19E
:1002000040F480203060316841F4803105E020F412
:1002100080303060316821F480213160606860B1E5
:1002200000F08EFA07463068810399D400F088FA0E
:10023000C01B6528F7D3032042E100F081FA07468E
:10024000306881038CD500F07BFAC01B6528F7D39A
:10025000F1E7E06868B10121396000F071FA054604
:10026000306881078FD400F06BFA401B0228F7D961
:10027000E1E7386000F064FA05463168880789D5FF
:1002800000F05EFA401B0228F7D9D4E7716821F428
:100290006041084300F016F9206A00F0FCF90028DC
:1002A00090D1216AB268490BC2F303120120491CA4
:1002B0008840DFF86814DFF85834895CC003C84010
:1002C0001860DFF85004006800F040FA010017D011
:1002D000F6E0A06948B30121396200F031FA054621
:1002E0003068810505D400F02BFA401B0228F7D9AD
:1002F000A1E77068216A20F46040084300F0E2F84A
:10030000207801072BD56069DFF81414D0B10122E1
:100310000A6000F015FA0546706B81071FD400F0E3
:100320000FFA401B0228F7D985E7386200F008FA77
:10033000054630688105E3D500F002FA401B02282B
:10034000F7D978E7086000F0FBF90546706B810784
:1003500005D500F0F5F9401B0228F7D96BE72078A6
:10036000410761D5706A0025C10009D4706A40F068
:10037000805070620125706A00F0805000900098F3
:10038000DFF8A093D9F80000C10513D4D9F8000014
:1003900040F48070C9F8000000F0D2F98246D9F824
:1003A0000000C10506D400F0CBF9A0EB0A006528D7
:1003B000F5D340E7A068012808D008B9706B09E0C0
:1003C0000528706B06D140F480607063706B40F458
:1003D000807005E020F480707063706B20F48060A2
:1003E000706341F28939A06860B100F0A9F98246D2
:1003F000706B810513D400F0A3F9A0EB0A00484507
:10040000F6D318E700F09CF98246706B810506D59B
:1004100000F096F9A0EB0A004845F6D30BE71DB1B2
:10042000706A20F080507062606A002847D0B8F18E
:100430000C0F30D0022822D100F04DF8054630686C
:10044000810105D500F07CF9401B0228F7D9F2E6BE
:10045000B068A16AE26A20F47D000843216B104372
:100460000843B060012000F037F80446306881018D
:1004700025D400F065F9001B0228F7D9DBE600F06F
:100480002AF804463068810119D500F059F9001B9B
:100490000228F7D9CFE601280FD0B068A26A00F48D
:1004A0008031914202BF00F47011E26A914202BFB2
:1004B00000F44000216B884201D0012000E00020C0
:1004C000BDE8F68770607068E16920F07F4040EA1F
:1004D0000160706070470020386600F031B92DE986
:1004E000F843040089466FD0DFF83C62306800F0C2
:1004F0000100484502D200F08EF865D12078DFF87F
:100500000C52810705D5AA68A06822F0F0020243C8
:10051000AA602178C8074FD56068022802D12968EF
:100520008A0308E0032802D129688A0103E0012830
:10053000296802D18A0702D446E08A0544D5A96811
:10054000890840EA8100A86041F2893800F0F8F893
:100550000746606802280BD1A86800F00C00082844
:100560002AD000F0EDF8C01B4045F5D3032050E041
:1005700003280AD1A86800F00C000C281CD000F059
:10058000DFF8C01B4045F5D3F0E701280AD1A86881
:1005900000F00C0004280FD000F0D2F8C01B40453A
:1005A000F5D3E3E7A86810F00C0F05D000F0C8F809
:1005B000C01B4045F6D3D9E7306800F00100814503
:1005C00004D200F028F801D0012022E02078410771
:1005D00005D5AA68E06822F4E0620243AA602178A7
:1005E000080706D5A968206921F4605141EAC001D5
:1005F000A96000F021F8AA684849454BC2F30312EC
:10060000895CC8401860BDE8F2434248006800F0C9
:100610009DB8BDE8F283B9F1010F03D1306840F015
:10062000040030603168490849EA410131603068AE
:1006300000F001004845704730B53D48416801F081
:100640000C02042A04D0082A04D00C2A04D018E092
:10065000384830BD384830BD384AC1F38343D45C94
:100660004068C1F38152521C0023C50347BF324882
:10067000A0FB04012F4DA5FB0401BDE8304000F0B4
:1006800087B80068400B00F007000121401C01FA08
:1006900000F0C00330BD78B5244B23491C6800220C
:1006A00014F0F00F22D1DD691E4CEE0003D5246852
:1006B00004F4C0540FE0DD6945F08055DD61DD696B
:1006C00005F080550095009D2468DD6925F0805572
:1006D00004F4C054DD61B4F5C05F08BFB0F5404F0D
:1006E00004D1086840F00400012208600B685B0830
:1006F00042EA43030B60086800F00100904201D019
:10070000012072BD002072BD0000000000380240D0
:100710000C00002004000020000047422C2E00089E
:100720008006474200700040003C0240083802400A
:10073000043802400024F40000366E01202E000828
:1007400001480068704700BF0000002070B50E4EE1
:100750000446B0680025A0B14FF47A710B4AB1FB92
:10076000F0F11068B0FBF1F000F0E9F848B9102C96
:1007700007D2002221464FF0FF3000F0C3F874602A
:1007800000E00125284670BD000000200C0000207C
:10079000D3BBD9B1B2F5803F5BD2022A1ED98C46B9
:1007A000B1FBF2F102FB11C31B0443EA1043B3FB9C
:1007B000F2FC02FB1C3380B240EA0343B3FBF2F0CD
:1007C00002FB103240EA0C4000237047022A05D990
:1007D0008446B0FBF2F002FB10C270474AB105D16B
:1007E00000F0010249085FEA300070470022002350
:1007F000704700F0C3B80B000200002100207047D2
:10080000F7D3002200237047904271EB030CF2D320
:1008100070B5B1FA81F4B3FA83F52C1BA340C4F18F
:10082000200532FA05F63343A2405FF00046E64069
:1008300002E05B085FEA3202841A71EB030524BF11
:10084000204629467641F4D302000B0030000021F7
:1008500070BD70B5B1FA81F4B2FA82F5C4F120042A
:100860006419B4F12006DAD3B2405FF00044F440DA
:10087000002502E052085FEA3303C61A71EB020E4C
:1008800024BF3046714664416D41F3D302000B0032
:100890002000290070BD30B4002513E050F8042B6F
:1008A000D30744BFA9F101039A18091F042942F88C
:1008B000045BFAD213468C0744BF15809B1CC90702
:1008C00048BF1D7050F8041B0029E7D130BC7047A9
:1008D0000901020002D4244881547047234B02F0DE
:1008E0000F021A4402F8041C7047214B19684FF696
:1008F000FF020002114000F4E06008431D49084374
:100900001860704770B51A4B1C68C4F302230124A9
:10091000C3F10705052D2EBF0F2504FA05F56D1E41
:100920001E1D072E34BF0023DB1E2940994004FA08
:1009300003F3BDE870405B1E1A401143C8E710B5D1
:10094000401EB0F1807F01D3012010BD0A4C6060D1
:100950000F214FF0FF30FFF7BBFF0021A160072000
:100960002060002010BD000000E400E018ED00E071
:100970000CED00E00000FA0510E000E07047000018
:1009800038B5040001D1012032BD00F079F818B962
:1009900000F045F900F07AFAFFE702206870211DA7
:1009A000206800F040F90120A871A870E870287153
:1009B00068716870002032BD38B5040001D1012093
:1009C00032BD00F05DF818B900F029F900F09CFA8A
:1009D000E3E710B5044604F13A0009B9027807E0EC
:1009E000042908BF427803D008290CBF8278C27856
:1009F000012A01D0012010BD11B9022202700AE0C3
:100A0000042902D10222427005E0082907BF022210
:100A100082700223C37000F021F800F01BF81CBFA5
:100A2000DFF86410884206D000F021F81CBFDFF820
:100A30006010884205D100F015F804D000F01BF8D2
:100A400001E000F002F8002010BD026842F001024F
:100A5000026070472068B0F1804F70472068012223
:100A600000F0B5B9816801F0070106297047DFF889
:100A70001C2090427047016841F0010101607047FD
:100A800004F1380568787047000400400008004011
:100A900000080140002084F838002846704770B5EF
:100AA00000F058F801D1022070BD012084F8380010
:100AB00032B1042A15D0082A25D00C2A34D045E0BA
:100AC000206800F0E8F82168886940F00800886133
:100AD000886920F0040088618A69F06802438A61AD
:100AE00035E0206800F0EDF82068816941F400618C
:100AF0008161816921F4806181618169F26841EAE3
:100B00000221816123E0206800F0EEF82168C869C5
:100B100040F00800C861C86920F00400C861CA69D3
:100B2000F0680243CA6112E0206800F0F4F820681F
:100B3000C16941F40061C161C16921F48061C16191
:100B4000C169F26841EA0221C16100E00125FFF7B5
:100B5000A1FF70BD0446002594F8380001280E4618
:100B6000704770B5064606F138050024287801283C
:100B700001D1022070BD0120287002226A70DFF8C6
:100B8000CC0132689368034093600868020018BF84
:100B9000102830D0202818BF30282CD0402826D04C
:100BA000502819D060281BD0702806D0B0F5805F7F
:100BB00027D0B0F5005F07D022E000F02BF83068B6
:100BC000816841F0770105E000F024F83068816821
:100BD00041F48041816014E000F018F850210BE0EE
:100BE000CA684968306800F0CEF8602104E000F07F
:100BF0000DF8402100E00146306800F0D6F800E032
:100C000001240120687000F00AF870BDCA684968C4
:100C10003068A9E0CB684A6889683068CDE0002177
:100C2000297020467047F0B5494F0368494C4A4D3A
:100C30004A4EB0F1804F18BFB84204D0B0421CBF3A
:100C4000A842A0420CD14A6823F070031343B0F1CC
:100C5000804F18BFB8420AD0B04218BFA84206D091
:100C6000A0421FBF3E4CA0423E4A904203D1CA68F8
:100C700023F4407313438C680A69C46223F0800331
:100C8000096881621343026842F004020260012194
:100C900041610360F0BD70B5046A026A52085200F7
:100CA000026224F00204456886690B688A68456020
:100CB00026F073061E43866114434968416304624B
:100CC00070BD30B5026A036A23F01003036222F09C
:100CD00020024368846900F031F8846142EA051219
:100CE00049688163026230BD70B5036A026A22F40A
:100CF0008072026223F400734468C5690A688E68D2
:100D0000446025F073051543C56143EA062349682D
:100D1000C163036270BD30B5026A036A23F4805375
:100D2000036222F400524368C46900F007F8C4610A
:100D300042EA053249680164026230BD0D6824F45C
:100D4000E64444EA05248D68436070478800FFFF4D
:100D50000004004000080140000C00400008004072
:100D6000000C01400010014010B5036A046A6408D9
:100D70006400046223F00A03846924F0F00444EA66
:100D8000021484612EE010B5036A046A24F0100492
:100D9000046223F0A003846924F4704444EA02341A
:100DA000846143EA0113036210BD826822F070027D
:100DB000114341F007018160704710B5846824F445
:100DC0007F442143114341EA0321816010BD10B5E6
:100DD00001F01F01036A01248C40A343036202FA5D
:100DE00001F1036A1943016210BD000010B58AB019
:100DF0001022002106A800F088F808220021684689
:100E000000F083F81022002102A800F07EF83A4C8E
:100E10004FF080402060172163200022E060616075
:100E2000A260226162612046FFF7AAFD08B100F0CE
:100E3000D5F84FF48050069006A92046FFF791FEA2
:100E400008B100F0CBF82046FFF7B6FD08B100F07E
:100E5000C5F80021009101912046694600F0C0F8D4
:100E600008B100F0BBF860210022029103920492C5
:100E7000059202A904222046FFF711FE08B100F0F6
:100E8000ADF8204600F013F80AB010BD81B000683C
:100E9000B0F1804F09D11948016841F001010160AA
:100EA000006800F001000090009801B0704710B594
:100EB00086B004461422002101A800F026F821681B
:100EC000B1F1804F15D10E48016841F00101016078
:100ED0000221006800F00100009000980191029149
:100EE0000021039104910121059101A9054800F019
:100EF000A9F806B010BD0000F0020020243802401E
:100F00001C38024000000240704710B504461046ED
:100F10000A460146204600F07FF9204610BD000039
:100F200080B500F0ADF900F00BF800F0B9F900F071
:100F300057FA00F0A5FAFFF759FF00F0B7FAFEE7FD
:100F400080B594B03422002107A8FFF7DEFF1422F9
:100F5000002102A8FFF7D9FF082200216846FFF709
:100F6000D4FF1D480168012221F4C05141F4006101
:100F700001600A92012109910C92102100220B912B
:100F8000119212920E20079002214FF480021091CC
:100F9000139207A8FFF7C6F808B100F01FF80F205A
:100FA00003210290039100220492059206920121EE
:100FB00002A8FFF794FA08B172B6FEE701214FF4D8
:100FC000803200910192684600F086FA08B172B64C
:100FD000FEE715B000BD00000070004072B6FEE7ED
:100FE00070B500F138031A78012A01D1022070BDD2
:100FF00001221A7002245C7005686E68AC680A6889
:1010000026F0700616436E600268B2F1804F1CBF76
:101010000948824205D0094DAA421CBF08488242B5
:1010200004D1486824F0800404439460012159707D
:101030000020187070BD000000040040000800404F
:10104000000801402DE9F84F00276B4A6B4B4FF029
:101050000F0805460E4634E0694CA54214BF05242E
:1010600004248C40674944EA0E0441F82C40C143F3
:10107000946801EA040C7468E40248BF40EA0C0C6E
:10108000C2F808C0D46801EA040C7468A40248BF1E
:1010900040EA0C0CC2F80CC0546801EA040C7468F5
:1010A000A40348BF40EA0C0CC2F804C0146801EA6B
:1010B000040C7168C90348BF40EA0C0CC2F800C0B8
:1010C0007F1C316831FA07F000F089800124BC40B0
:1010D00014EA0100F4D04FEA470C032101FA0CF1A5
:1010E0006FEA010E716801F00309B9F1010F1CBF2D
:1010F00001F00301022912D1A968D6F80C900EEA7A
:10110000010109FA0CF949EA0101A960696821EABB
:1011100004047168C1F30011B9400C436C60B9005C
:10112000347904F00304032C21D0EC68D6F808903D
:101130000EEA040409FA0CF949EA0404EC60347973
:1011400004F00304022C12D1FC0805EB840401F026
:101150001C09D4F820A008FA09FB2AEA0B0AD6F8E1
:1011600010B00BFA09F949EA0A09C4F820902C6872
:101170000EEA040E347904F0030404FA0CF444EA91
:101180000E042C60746814F4403F99D01C6844F03D
:1011900001041C604FEA970C1C6804F001040094E1
:1011A00001F00C01009C174C54F82C4008FA01FE89
:1011B00024EA0E0E144CA54208BF00240ED0134C96
:1011C000A54208BF012409D0114CA54208BF022442
:1011D00004D0104CA5427FF43FAF032441E7BDE8A3
:1011E000F18F0069084018BF0120C0B2704702B9F2
:1011F000090481617047000000040140203802406A
:1012000000100240080001400000024000040240BB
:1012100000080240000C024062F30F2262F31F42FA
:10122000401810F0030308D0C91A1FD3DB0748BFCA
:1012300000F8012D28BF20F8022D130030B4144609
:101240001546103928BF20E93C00FAD8490728BFC5
:1012500020E90C0048BF40F8042D890028BF20F881
:10126000022D48BF00F8012D30BC7047C91818BFC7
:1012700000F8012DCB0728BF00F8012D70470000B2
:10128000032010B5FFF731FB0F20FFF75FFA0024B2
:10129000002814BF012400F0A5F9204610BD00006D
:1012A0002DE9F04186B0142200216846FFF72DFE9B
:1012B0004248434C0168434E434FDFF8108141F0F0
:1012C0000401016048F23E05026802F00402059242
:1012D0000599026842F001020260036803F001030D
:1012E00005930599026842F002020260036803F068
:1012F000020305930599026842F008020260012288
:10130000006800F008000590012105982046FFF7CD
:101310006EFF002229462046FFF769FF00224FF4A6
:1013200070713046FFF763FF00224FF4807138463A
:10133000FFF75DFF002204214046FFF758FF01211F
:101340000091019102910022039269462046FFF725
:1013500079FE0120019000220292039200956946D5
:101360002046FFF76FFE4FF4707100F031F8304601
:10137000FFF768FE4FF4807100F02AF83846FFF757
:1013800061FE4FF400400021009001910291384627
:101390006946FFF757FE4FF4E0500021009001919D
:1013A000029130466946FFF74DFE042100F010F827
:1013B0004046FFF747FE06B0BDE8F0811C3802400A
:1013C000000402400008024000000240000C0240FD
:1013D0000091012200210291039101926946704718
:1013E00010B586B01422002101A8FFF78EFD04225B
:1013F00000216846FFF789FD1E4C1F482060002130
:10140000FF207F22E0606160A26021616161A161D3
:10141000204600F009F908B1FFF7E0FD0020ADF823
:1014200004008DF8060004900590012201A92046D1
:1014300000F045F908B1FFF7D1FD012100228DF838
:1014400000108DF801108DF802108DF80320694608
:101450000122204600F0B6F908B1FFF7BFFD06B043
:1014600010BD00680449884202D10448012202608C
:10147000704700005803002000280040D80647426B
:1014800080B50848084906224FF49C730160426009
:10149000836000F064FA18B1BDE80140FFF79EBD1B
:1014A00001BD00BFB00300200030004080B500F057
:1014B00019FC00F077FD00F073FF142000F0AAFF84
:1014C00000F011FC01F006F801F04BF900F06BFDA3
:1014D00000F06EFFF4E700002DE9FC410546287896
:1014E000C10775D53C4E706A0024C10009D4706AEA
:1014F00040F0805070620124706A00F080500090CB
:101500000098364F3868C10511D4386840F48070AF
:101510003860FFF715F980463868C10507D4FFF732
:101520000FF9A0EB08006528F6D3032051E03068DE
:10153000696800F0C04001F0C042904209D001F457
:101540004030B0F5403F04D13268900348BF0120DD
:101550003FD4706B10F440301CBF01F4403188421E
:101560001BD02878C1072ED51D49706B01220A6057
:10157000002320F440300B607063C0050DD5FFF7E9
:10158000DFF80746706B810507D4FFF7D9F8C01B59
:1015900041F289318842F5D3C7E72878C10712D5CF
:1015A000686800F44031B1F5403F06D1326822F05E
:1015B000C04200F0C04010433060706B696801F4B5
:1015C0004031084370631CB1706A20F08050706233
:1015D0000020BDE8F68100000038024000700040A5
:1015E000DC0647420F4881B0416841F0004141604C
:1015F000416801F0004100910099026842F0010247
:101600000260036803F0010300930099426842F00E
:1016100080524260406800F080500090009801B015
:10162000704700BF2038024038B5040001D10120C6
:1016300032BD607F20B9002121772046FFF711FFDE
:10164000022060772068C168CA0634D4CA2141628A
:1016500053202268506200F08FF8010019D12168F0
:10166000DFF82C028A6802408A6022689368656805
:10167000216960690D4305432B4393602068E1684D
:10168000016120680169A26841EA0241016100F03C
:1016900071F8010009D121680A6C22F480220A64E1
:1016A0002268136CA1690B431364FF2221680300B5
:1016B0004A6203D100E000200121617732BDF8B514
:1016C00004460D46207F012801D10220F2BD0120F1
:1016D000207702216177002A2068806815D14106B1
:1016E0005CBF0020E870287800F026F9074668788B
:1016F00000F022F90602A87800F01EF946EA074633
:101700000643E87846EA80560DE041065CBF0020BB
:10171000E8706E782978A878360246EA0146E978BA
:10172000064346EA81562168CA204862532220684F
:10173000426200F021F8010012D12168DFF8540163
:1017400006400E602068826822F480228260216850
:101750008A68EB68286903431A438A6000F00AF834
:10176000010004BF012161772168FF224A62002342
:101770002377F2BD2046CAE02046A7E038B50068CE
:101780000C46816A61600369C3F30E03A3600168BC
:10179000DFF8000101400B0C03F03F032370A17040
:1017A0000D0A890D6570E1703AB9207800F0CFF824
:1017B00000F005F800F069F8A070002032BD20703C
:1017C0006078C4E0F8B504460E46207F012801D1B8
:1017D0000220F2BD0120207702216177757862BB7B
:1017E000E80603D505F0EF050A357570F07800F0CE
:1017F000A3F80746707800F09FF80502B07800F073
:101800009BF845EA07450543307845EA40352068AE
:10181000CA214162532221684A62FFF7ADFF0100ED
:1018200006D12168DFF8700005404D60FFF7A2FF88
:10183000010004BF0121617796E7F07831782D022D
:1018400045EA0045B078054345EA4135DFE738B55C
:101850000C460168DFF8400049680140A1700D0A9C
:101860000B0C05F01F05490BE370657001F00701D3
:10187000217042B9E07800F06AF8E070FFF7A0FF4D
:1018800000F003F8A070002032BD6070A0785EE028
:10189000BFFF8FFF7F7F7F003FFFFF0038B504460B
:1018A0004FF657702168C860FEF74AFF054620686A
:1018B000C168880608D4FEF743FF401B40F2E931B7
:1018C0008842F4D3032032BD002032BD70B50446F7
:1018D00000252068C1684A0617D4C16841F080011C
:1018E000C160FEF72DFF064609E0FEF729FF801BC9
:1018F00040F2E931884202D3042060770125206854
:10190000C168480601D42800EFD0284670BD38B51C
:10191000044600252068C16821F08001C16020686C
:101920008168880606D42046FFF7B8FF10B104206E
:1019300060770125284632BD002101E0491C0A38A4
:10194000C2B20A2AFAD240EA0110C0B270470109B5
:101950000A2200F00F0002FB0100C0B2704738B548
:10196000040001D1012032BD20684CF6CC41016059
:1019700045F25552026063684360A1688160FEF7DA
:10198000DFFE05462068C16811F0030F0BD0FEF79B
:10199000D7FE401B2B28F5D32068C16811F0030F38
:1019A000F0D0032032BD4AF6AA210160002032BDEA
:1019B00000684AF6AA2101600020704710B5DFF8E0
:1019C00068430022002104F12C0001F00DF80FF211
:1019D0009C3104F12C0001F034F8012010BD0120ED
:1019E000704770B50024DFF8405305EBC4067078EB
:1019F000012805D100F060F800F04FF80020707069
:101A0000641C042CF1DD0024DFF8200300EBC40586
:101A1000697801290BD1002C1CBF012C022C02D1AA
:101A200000F045F801E000F03DF800206870641C0B
:101A3000072CE9DB70BDBC48012141704172BB48F5
:101A4000417041724174CCE770B50024B64DB8487E
:101A500000EBC4067178012905D100F02DF800F0E3
:101A60001CF800207070641C042CF0DB0024B148CA
:101A700000EBC405697801290BD1002C1CBF012C97
:101A8000022C02D100F013F801E000F00BF8002066
:101A90006870641C062CEADB70BD716805F12C00CF
:101AA00000F0CFBF6868AA78E9780088C7E0686866
:101AB000AA78E9780088F3E0B278F17805F12C0093
:101AC00000F092BF9A4801214170417299484170DB
:101AD000417241744176B7E720B59748924A807BBE
:101AE000138D01468B4214D00125062855720FD85C
:101AF000DFE800F00404040B0B07070002F1840088
:101B000005E002F1AC03D36002E002F19800D0607E
:101B10001185BDE8204064E738B58448874900F066
:101B200009F8BDE831405CE738B58248844900F0E7
:101B300001F827E042680B781488A34203D00125FE
:101B4000457012880A70C2684B781488A34203D08B
:101B50000125457212884A7042698B781488A34225
:101B600003D00125457410888870704738B57148D6
:101B7000744AC16913780C88A34203D001254576C5
:101B800008881070BDE831405EE738B569486E4A94
:101B9000416A13780C88A34204D0012580F82150B3
:101BA00008881070EEE738B56248684AC16A137851
:101BB0000C88A34204D0012580F8295008881070B1
:101BC000E0E700B58BB06248624A09924FF4807139
:101BD0000A91079006910590039001904FF40073CD
:101BE000802140224FF4004008930491029200901B
:101BF0000222594B5948102100F08AFE0BB000BD5B
:101C0000574A574930B5B0FBF2F201FB1200554A72
:101C10004FF46163B0FBF3F313804FF461631188F9
:101C20000C4603FB14043C25B4FBF5F5558003FB7F
:101C3000110053883C2101FB1300908030BDFEB59C
:101C400006460C4615460921684600F009FF0121A9
:101C50000A220A2301E05A43491CB6FBF2F000288D
:101C6000F9D189B2481E09E00A27B6FBF7F703FB52
:101C7000176630360DF80060401E3E460028F3D54A
:101C800020200DF801002A46274E214606F12C009F
:101C900000F0AAFE694606F12C0000F0D2FEF7BD66
:101CA0007CB500240A28ADF800400AD30A25B0FB11
:101CB000F5F505F130060A238DF8006003FB1500E9
:101CC00002E030238DF8003030308DF80100164CE2
:101CD00004F12C0000F088FE694604F12C0000F0AD
:101CE000B0FE73BD6DE770B5002400251E4800EB03
:101CF00005167278012A11D17068012430B1FEF7FF
:101D00001FFD7168B268401A904207D300207070BE
:101D1000FEF716FD7060E8B2F16888476D1C012D72
:101D2000E4DD204670BD000030010020F0010020FD
:101D3000280200204802002030030020C4030020B5
:101D4000C7030020CA030020CB030020CC030020DF
:101D50000008024000000240000402405C01002034
:101D600080510100BC030020100100202020202011
:101D70002020202020203A20203A202000000000AF
:101D800080B599480188012903D1FFF754FE00204E
:101D900002E0FFF797FE012094490870012002BD80
:101DA00038B5924D0446287810B1012807D014E0C8
:101DB000FFF7B2FE687880B9FFF78EFE0DE0FFF7FF
:101DC000B3FEA87810B9FFF7D1FE06E0012802D1D2
:101DD000FFF7DBFE01E0FFF7E6FE2146281D00F0DD
:101DE0004AFE012032BD0020CBE00220C9E00420E1
:101DF000C7E00620C5E00120C3E00320C1E00520C4
:101E0000BFE00720BDE00820BBE00920B9E00A20C0
:101E1000B7E00B20B5E0000038B50728724C734DD1
:101E200041D8DFE800F004400F4032323939012058
:101E30002870FFF747FE00F0ACF8002020806870A3
:101E4000A87031BD6A786A486A49032A2BD8DFE84E
:101E500002F002070D1401236B704B74037010E045
:101E600002226A7001234B7603720AE003226A7031
:101E7000012381F82130037403E0002068700122FF
:101E80004A72BDE83140FFF7ACBD687858B9608848
:101E9000642808DA401C05E0687820B960880228C8
:101EA00001DB401E608031BD38B509284E4D4F4CD6
:101EB00066D8DFE800F005650F652B2B44445A5ABD
:101EC00000202070FFF7B7FD228DE18CA08C00F080
:101ED00006FA4EE0A278484848491AB1022A0CD0C6
:101EE00005D331BD0123A3704B7403720AE00222B3
:101EF000A27001234B76037404E00022A270012338
:101F00004B720370BDE83140FFF79EBDA17842F2ED
:101F10000F7041B102290CD032D2E18C81422FDA0C
:101F2000491CE18431BDA18C814229DA491CA1847C
:101F300031BD218D814223DA491C218531BDA07834
:101F400040B102280CD01BD2E08C022818DB401EC6
:101F5000E08431BDA08C022812DB401EA08431BD7C
:101F6000208D68B1401E208531BD00212170FFF712
:101F700062FD00F00EF80120288000216170A17040
:101F800031BD1A490A7812B1012A01D0704743E7DE
:101F90008AE7154915484A89C2840B89838489894F
:101FA00001857047704770B5002400250F4800EB8D
:101FB00005167279012A11D1B068012430B1FEF7FB
:101FC000BFFBB168F268401A904207D300207071DD
:101FD000FEF7B6FBB060E8B2316988476D1C012D91
:101FE000E4DD204670BD00003003002078020020B0
:101FF0001102002030010020610200202802002090
:102000000120704770B50446DFF8E403DFF8E453BD
:10201000DFF8E463FFF7CCFCFEF792FBA861002237
:1020200029463046FFF7AAFB002205F11C01304685
:10203000FFF70DFCA878297D884211D02875DFF8BC
:10204000BC532888012804D16868401C6860FFF7E9
:10205000D7FD288820B90021A9736860FFF7D0FD5B
:10206000C0E0F8B500F0D2F867D1A87B20B9012113
:1020700000F01CFA00F0CFF83C26A87B012812D112
:1020800029896868714388425DD300F0B3F800F095
:10209000C8F8E861FEF754FBA8610121012028750A
:1020A000022000F003FAA87B02282CD16868A989D5
:1020B000884207D30320A87300F0A4F8FEF740FB82
:1020C000286220E0287D012841F289370CD1FEF7F3
:1020D00037FBA969401AB84215D300202875FEF7CE
:1020E0002FFBE86100210BE0FEF72AFBE969401AAB
:1020F000B84208D301202875FEF722FBA861012110
:10210000022000F0D3F9A87B032808D1FEF718FBC2
:10211000296A401A03D000F069F800F07CF8A87B27
:10212000042810D1698968684E43B0420BD300F08F
:1021300065F80020A873686005E000F05BF800F027
:102140005DF800F05FF800F08BF80120F2BD70B58B
:1021500000F05CF840D1A87B18B900F047F800F017
:102160005AF83C26A87B01280BD12989686871435D
:10217000884237D30121022000F098F900F051F88D
:102180006862A87B02280AD1FEF7DAFA696AAA898E
:10219000401A824203D200F031F800F03CF8A87BEC
:1021A000032809D1698968684E43B0421AD300F008
:1021B0001DF800F036F86862A87B042812D1FEF7FB
:1021C000BFFA696AAA89401A82420BD200F01AF853
:1021D00000206860A87305E000F00CF800F00EF82D
:1021E00000F010F800F03CF8012070BD0121012042
:1021F00000F05CB90021002000F058B90021012056
:1022000000F054B90021022000F050B97B4D044683
:10221000288801287047A87B401C0021A8736960AA
:102220007047A87B401C0021A8736960FEF788BA3C
:1022300010B5724904460888897C81421CBFC0B22F
:1022400000F033F808E010B56C4904464888098A64
:10225000814218BF00F062F800F002F8012010BDC2
:102260002146674800F007BC38B5644DE98A04464A
:102270006888814205D0AA7B022A04BFC0B200F060
:1022800006F86888E882FFF7EBFF012032BD5D4A5F
:102290001368986304211046FEF79BBB59480268F7
:1022A000002191630421FEF794BB544980B58874E2
:1022B00000220888ADF800208DF800000122694650
:1022C000514800F033FC01BD4F480178AA294B4921
:1022D0000CBF80780120088008888874DEE71CB570
:1022E0000024CDE90044454B8DF801009A815981C5
:1022F000020A8DF800201881598944488DF803108E
:102300000A0A8DF8022099898DF805100A0A8DF8BD
:1023100004206946062200F009FC13BDE0B5002246
:102320003649CDE900220882498839488DF80110E4
:102330000A0A8DF800206946022200F0F7FB07BD6B
:1023400033492E480A78AA2A05D18A781202428097
:10235000C978418001E0642242804188018270474F
:102360002A4A26491078AA2812D193781B020B8199
:10237000D07803430B8113791B024B8150790343BF
:102380004B8193791B028B81D07903438B8105E0CC
:102390000A220A810120052248818A81FFF7F9BDBE
:1023A00080B5FFF7DDFFFFF7CBFFBDE801408BE70E
:1023B00070B500240025124800EB05167278012A3A
:1023C00011D17068012430B1FEF7BAF97168B268B2
:1023D000401A904207D300207070FEF7B1F9706088
:1023E000E8B2F16888476D1C072DE4DB204670BD1C
:1023F000B0030020780300205803002030030020A1
:10240000A0000020F002002000E2030800E0030822
:1024100000E1030838B50446FEF792F914F1010F04
:10242000054602D0044988680419FEF789F9401B63
:10243000A042FAD331BD00BF0000002080B50121C9
:10244000344800F010FB012002BD38B5314DA969B8
:102450000446B1F5FA6F304806D101220821FEF793
:10246000C6FE2822AA6106E000220821FEF7BFFE70
:102470004FF4FA60A8612146284600F0FCFA0120DA
:1024800032BD10B504462548817B234819B1042983
:10249000B8BF012200DB00222021FEF7A8FE214662
:1024A0001C4800F0E8FA012010BD000038B50346D2
:1024B0001B4C012904EB830508D148B9002234F8EC
:1024C0001310A868BDE83840FEF791BE0028F5D18A
:1024D0000122F4E770B5002400250E4800EB051634
:1024E0007278012A11D17068012430B1FEF728F901
:1024F0007168B268401A904207D300207070FEF7EE
:102500001FF97060E8B2F16888476D1C032DE4DBA9
:10251000204670BDA40200200004024030030020C9
:10252000D40200200120704770B504464FF480515A
:102530009C489D4D00F0AFF8287041F2883140B9B9
:1025400096F82100A8B9B1623046022100F093FA52
:102550000FE0687830B9B06A322802D0FFF743FC48
:1025600000E0B16296F82100012802D1022100F0BA
:102570008FF83EE038B504464FF4805100F05EF825
:1025800080B9A86A41F28831884202D1FFF73BFC4A
:1025900001E0FFF730FC012100F099F83220A86239
:1025A000214600E0012144E070B504464FF400618B
:1025B0007C487E4D00F06FF828704FF47A7140B976
:1025C00096F84100A8B9B1643046042100F053FAEE
:1025D0000FE0687830B9B06C322802D0FFF707FC02
:1025E00000E0B16496F84100012802D1042100F016
:1025F0004FF8287868702146304600F03CFA0120F8
:1026000070BD38B504464FF4006100F017F878B992
:10261000A86CB0F57A7F02D1FFF7F9FB01E0FFF774
:10262000EEFB032100F053F83220A864214600E0BD
:102630000321284600F01FFA012032BD59485C4DA5
:10264000FEF7CFBD70B504464FF480615548594D33
:1026500000F021F828704FF47A7140B996F86100C3
:10266000A8B9B1663046062100F005FA0FE0687897
:1026700030B9B06E322802D0FFF7BBFB00E0B16684
:1026800096F86100012802D1062100F001F8B0E7B8
:10269000304600F0FAB9464EFEF7A3BD38B5044601
:1026A0004FF48061FFF7CAFF78B9A86EB0F57A7F62
:1026B00002D1FFF7AEFB01E0FFF7A3FB052100F01D
:1026C00006F83220A866214600E00521B1E7284639
:1026D00000F0DBB970B500F03FF8374DFFF7DBFFD6
:1026E00028704FF4FA6148B996F88100C0B9C6F86D
:1026F00088103046082100F0BEF911E0687840B932
:10270000D6F88800322802D0FFF76FFB01E0C6F848
:10271000881096F88100012802D10821FFF7B8FF40
:1027200067E738B500F018F8214DFEF75AFD88B973
:10273000D5F88800B0F5FA6F02D1FFF766FB01E02B
:10274000FFF75BFB0721FFF7C2FF3220C5F88800C7
:10275000214600E007216CE704464FF4004117488A
:10276000704770B500240025114800EB05167278FB
:10277000012A11D17068012430B1FDF7E1FF7168C1
:10278000B268401A904207D300207070FDF7D8FF5E
:102790007060E8B2F16888476D1C082DE4DD2046C2
:1027A00070BD000000080240E8020020EA0200209C
:1027B00010000020EC020020EE0200200000024089
:1027C000FFF728BE70B5044610000CBF0022012A96
:1027D0000D4603D121896068FEF709FD218B6069F0
:1027E00000F081F86A08218CE06900F08DF8AA08F1
:1027F000218D606A00F088F8EA08218EE06A00F016
:1028000083F82A09218F606B00F07EF86A0900F0D6
:1028100078F804F14806AA093188606C00F074F871
:1028200031897068EA09FEF7E2FC00F065F800F013
:1028300058F800F05CF800F054F800F05DF8BDE8DE
:1028400070404CE0F8B50D4604462E0910000CBF50
:102850000022012A03D121896068FEF7C8FC218F7C
:10286000606B06F00102FEF7C2FC720800F049F846
:1028700004F14807B2083988606C00F045F8F208A6
:102880003989786818BF0122FEF7B1FC00F034F8EE
:1028900000F027F800F02BF800F023F800F02CF8F7
:1028A00000F01FF8218F606B00F01DF86A0800F03F
:1028B00028F8AA083988606C00F026F8ED083989F4
:1028C000786800F010F800F017F800F00AF800F04F
:1028D0000EF800F006F800F00FF8BDE8F240012015
:1028E0006EE701206CE705F00102FEF780BC218A4B
:1028F000E0680122FEF77BBC218AE0680022FEF737
:1029000076BCB4F84010E06B02F00102FEF76FBC39
:102910002DE9F74F07460C9ADDF834E00E9CDDF800
:102920003C80109DDDF84490DDF848B0DDF84CA007
:102930001498DDF854C0169900263E709DF8046086
:102940007E709DF80860BE703C827B6007F1480491
:102950003A81C7F80CE0C7F834803D87C7F83C904F
:10296000A7F840B0C7F844A02080218128206073D8
:102970000621A1720C20E0721421C4F804C0217356
:102980003220FFF71DFF0022332100F029F8052037
:10299000FFF716FF0022332100F022F80520FFF791
:1029A0000FFF0022322100F01BF80520FFF708FF7F
:1029B000A17A00F014F8E17A00F011F8217B00F020
:1029C0000EF8617B00F00BF80022012100F008F8FE
:1029D000384603B0BDE8F04F0022022132E7002262
:1029E00038462FE70000000038B500BF1BA425685B
:1029F00000954378994228BF591E83789A4228BF90
:102A00005A1ED2B2C9B21DF8022089180278102AC3
:102A100041F0800104D10022C9B2FFF7D3FE31BDDD
:102A200012B9C9B2FFF70EFF31BD0278102A04BFF8
:102A30000122FFF7C7BE002A04BF0122FFF702BF31
:102A4000704738B504460D4604E015F8011B2046D2
:102A5000FFF7EBFF28780028F7D131BD0040145470
:102A6000002200F093B800EB011001210022417018
:102A700042600120704710B500EB01140120607026
:102A8000FDF75EFE6060012010BD00EB011000222A
:102A900042700120704700002DE9F843002501260F
:102AA00012F0030F894607461BD1940800F0A3F8E3
:102AB00000F01AF8A84601224E4601E03F1D6D1CA9
:102AC000A8B2C04598BFA04208D256F8042B394698
:102AD000022000F075F801280246EFD1164600F0FA
:102AE000A3F83046BDE8F2834FF47A7000F0A4B842
:102AF00038B5044600F07FF80546FFF7F5FF15B935
:102B0000204600F015F9FFF7EFFF0446064801687C
:102B100021F400710160026822F00802026000F0F6
:102B200083F8204632BD0000043C024070B5C0B0BE
:102B300000F023F82046FFF7DBFFAA218DF80010F4
:102B4000FFE78DF80150002004E0315C0DEB00023E
:102B5000401C9170A842F8DBAD1CA8B22D1D2D1AA7
:102B6000800805EB8005AAB269462046FFF794FF6E
:102B7000401E8041C00F40B070BD04460E46154651
:102B80004FF480716846FFF76BBF000000B500BFCF
:102B9000130096469446103928BFA0E80C50FAD886
:102BA0005FEA417C28BF0CC048BF40F8042BC9072E
:102BB00028BF20F8022B48BF00F8012B00BD000001
:102BC000F8B5544C207C01280D46164601D1022050
:102BD000F2BD012020744CF25037384600F02CF83A
:102BE000010005D1002060612E60384600F024F815
:102BF00000212174F2BD484801688A0712D5016896
:102C0000CA0706D54549464A816082600168CA07FD
:102C100006D44449444AC160C2600068810701D5B6
:102C200001207047002070473B48016841F00201D5
:102C3000FFE701600020704770B50446FDF780FD96
:102C400006463A4D2868C1070AD514F1010FF9D09C
:102C500024B1FDF775FD801B8442F3D2032070BDC3
:102C60002868810744BF022028602968C8050ED45F
:102C7000296808050BD42968880408D42968C80481
:102C800005D42968480502D42968880503D500F0D1
:102C900004F8012070BD002070BD10B523491D4807
:102CA0000B680022DC0505D5426942F00202426150
:102CB0004FF480720B689C0505D5436943F001030E
:102CC000436142F400720B681C0505D5436943F06B
:102CD0000403436142F400620B689C0405D5436918
:102CE00043F01003436142F400520B68DC0405D545
:102CF000436943F02003436142F480520B685C0552
:102D000005D5436943F00803436142F480620A60D9
:102D100010BD000098030020043C0240EFCDAB89B9
:102D200005040302BFAE9D8C16151413183C024017
:102D3000084A00215161000A07490B6843F40073F7
:102D40000B6000020A6842F008020A60002101607C
:102D50007047000098030020043C0240F0B4024693
:102D6000106895681318506803EB5004C0071CD511
:102D70004D441AE013F8017B05F8017B491EF9D197
:102D800098B113F8011BC6F38106032E08BF13F890
:102D9000016B01EB06214942801C294405D011F842
:102DA000016B05F8016B401EF9D1A3420ED013F858
:102DB000016B16F0030104BF13F8011BC91C300995
:102DC0000F28DBD113F8010B0F30D7E7F0BC02F16D
:102DD0000C00704710B5074979441831064C7C4403
:102DE000163404E00A68081D114488470146A142D0
:102DF000F8D110BD08000000240000009BDAFFFF9E
:102E0000E0000000F00200200000000051FFFFFF82
:102E1000EC0100007202000000000020704700007A
:102E2000030406080C101820300000000000000009
:102E300000000000010203040607080900F00DF875
:102E4000002801D0FFF7C6FFAFF300800020AFF3EA
:102E50000080FEF765F800F002F80120704700F0EE
:102E600001B800000746384600F002F8FBE7000012
:102E700080B5AFF30080024A11001820ABBEFBE71B
:102E800026000200426F6D204E756F6320202020C7
:102E90002020202000000000426F6D20313A2020C9
:102EA000202020205068757400000000426F6D20C3
:102EB000323A202020202020506875740000000045
:102EC00044656C61793A20202020202020206D73F9
:102ED00000000000FEE7FEE7FEE7FEE7FEE77047C2
:102EE0007047704700F000B802490A688868821885
:102EF0000A607047000000200148804701480047F1
:102F00001D2E0008212F000852756E6E696E672015
:102F1000000000004361692064617420000000002B
:102F2000AFF30080AFF30080FFF788FFFFF7FEBF2D
:102F3000FFF7FEBFFFF7FEBFFFF7FEBFFFF7FEBFC5
:102F4000FFF7FEBFFFF7FEBFFFF7FEBFFFF7FEBFB5
:102F5000FFF7FEBFFFF7FEBFFFF7FEBFFFF7FEBFA5
:102F6000FFF7FEBFFFF7FEBFFFF7FEBFFFF7FEBF95
:102F7000FFF7FEBFFFF7FEBFFFF7FEBFFFF7FEBF85
:102F8000FFF7FEBFFFF7FEBFFFF7FEBFFFF7FEBF75
:102F9000FFF7FEBFFFF7FEBFFFF7FEBFFFF7FEBF65
:102FA000FFF7FEBFFFF7FEBFFFF7FEBFFFF7FEBF55
:102FB000FFF7FEBFFFF7FEBFFFF7FEBFFFF7FEBF45
:102FC000FFF7FEBFFFF7FEBFFFF7FEBFFFF7FEBF35
:102FD000FFF7FEBFFFF7FEBFFFF7FEBFFFF7FEBF25
:102FE000FFF7FEBFFFF7FEBFFFF7FEBFFFF7FEBF15
:102FF000FFF7FEBFFFF7FEBFFFF7FEBF1200011293
:103000001005120104300168FF1F094305000490F8
:1030100003252500080110122910830200101275E3
:103020001092032012A91092042090030326000896
:103030000520124510920620129D1092072012D5ED
:1030400010920820600223270008902101830120AC
:103050009022FA248220901214048363209021018C
:10306000134F219091608331229010038813000048
:103070004710920620C3692270C3BD197012DF1079
:10308000211B13082F18112923842E801001010001
:10309000980812030812AC0812040843C02E28F145
:1030A00047018004426F6D20312001216C2114D230
:1030B0003214D0034465476173141101100308BC36
:1030C000030020D7130BBE081540130EC00811C013
:1030D0001307320811C013073808120508123A08FE
:1030E000120608123C08213C5214F85298F852ACCF
:1030F000F851F0F10858439C0258439E025843A0EF
:103100000250A96C87811D6C25CC97A11D444201FA
:103110000A8004D00700003D24282110124B109291
:103120000248228320280100020088700200040265
:05313000400442010211
:0400000508002F219F
:00000001FF
